{
  "contractName": "Transfer3",
  "abi": [
    {
      "constant": true,
      "inputs": [],
      "name": "creator",
      "outputs": [
        {
          "name": "",
          "type": "address"
        }
      ],
      "payable": false,
      "stateMutability": "view",
      "type": "function"
    },
    {
      "inputs": [
        {
          "name": "amount",
          "type": "uint256"
        }
      ],
      "payable": false,
      "stateMutability": "nonpayable",
      "type": "constructor"
    },
    {
      "payable": true,
      "stateMutability": "payable",
      "type": "fallback"
    },
    {
      "constant": false,
      "inputs": [
        {
          "name": "a",
          "type": "uint256"
        }
      ],
      "name": "setA",
      "outputs": [],
      "payable": false,
      "stateMutability": "nonpayable",
      "type": "function"
    },
    {
      "constant": false,
      "inputs": [],
      "name": "getA",
      "outputs": [
        {
          "name": "",
          "type": "uint256"
        }
      ],
      "payable": false,
      "stateMutability": "nonpayable",
      "type": "function"
    },
    {
      "constant": true,
      "inputs": [
        {
          "name": "account",
          "type": "address"
        }
      ],
      "name": "balanceOf",
      "outputs": [
        {
          "name": "",
          "type": "uint256"
        }
      ],
      "payable": false,
      "stateMutability": "view",
      "type": "function"
    },
    {
      "constant": false,
      "inputs": [
        {
          "name": "payees",
          "type": "address[]"
        },
        {
          "name": "amount",
          "type": "uint256"
        }
      ],
      "name": "batchTransfer",
      "outputs": [],
      "payable": false,
      "stateMutability": "nonpayable",
      "type": "function"
    },
    {
      "constant": false,
      "inputs": [
        {
          "name": "from",
          "type": "address"
        },
        {
          "name": "to",
          "type": "address"
        },
        {
          "name": "amount",
          "type": "uint256"
        }
      ],
      "name": "transfer",
      "outputs": [],
      "payable": false,
      "stateMutability": "nonpayable",
      "type": "function"
    }
  ],
  "bytecode": "0x608060405234801561001057600080fd5b506040516020806103d58339810180604052602081101561003057600080fd5b505160008054600160a060020a03191633178082556001839055600160a060020a03168152600260205260409020556103678061006e6000396000f3fe608060405260043610610071577c0100000000000000000000000000000000000000000000000000000000600035046302d05d3f811461009d57806370a08231146100ce57806383f12fec14610113578063beabacc8146101c7578063d46300fd1461020a578063ee919d501461021f575b604051339060009060019082818181858883f1935050505015801561009a573d6000803e3d6000fd5b50005b3480156100a957600080fd5b506100b2610249565b60408051600160a060020a039092168252519081900360200190f35b3480156100da57600080fd5b50610101600480360360208110156100f157600080fd5b5035600160a060020a0316610258565b60408051918252519081900360200190f35b34801561011f57600080fd5b506101c56004803603604081101561013657600080fd5b81019060208101813564010000000081111561015157600080fd5b82018360208201111561016357600080fd5b8035906020019184602083028401116401000000008311171561018557600080fd5b9190808060200260200160405190810160405280939291908181526020018383602002808284376000920191909152509295505091359250610273915050565b005b3480156101d357600080fd5b506101c5600480360360608110156101ea57600080fd5b50600160a060020a03813581169160208101359091169060400135610277565b34801561021657600080fd5b50610101610330565b34801561022b57600080fd5b506101c56004803603602081101561024257600080fd5b5035610336565b600054600160a060020a031681565b600160a060020a031660009081526002602052604090205490565b5050565b600160a060020a0383166000908152600260205260409020548111156102fe57604080517f08c379a000000000000000000000000000000000000000000000000000000000815260206004820152601f60248201527f746f6b656e60732062616c616e6365206973206e6f7420656e6f756768202100604482015290519081900360640190fd5b600160a060020a0392831660009081526002602052604080822080548490039055929093168352912080549091019055565b60015490565b60015556fea165627a7a72305820ca5e54d64cb6da492664f437e4b85b1fa2fc53fa9655f8aa8bb42ec15136db370029",
  "source": "pragma solidity ^0.5.0;\n\ncontract Transfer3 {\n    address payable public creator;\n    uint256 _a;\n    mapping(address => uint256) _balances;\n\n    function setA(uint256 a) public {\n        _a = a;\n    }\n\n    function getA() public returns (uint256){\n        return _a;\n    }\n    constructor (uint256 amount) public {\n        creator = msg.sender;\n//        require(amount<=9,\"也不知到啥云因\");\n        _a = amount;\n        _balances[creator] = amount;\n    }\n    function() payable external {\n        msg.sender.transfer(1);\n    }\n\n    function balanceOf(address account) public view returns (uint256) {\n        return _balances[account];\n    }\n\n    function batchTransfer(address[] memory payees, uint256 amount) public {\n\n    }\n\n    // 合约代币转移\n    function transfer(address from,address to,uint256 amount )public {\n        require(_balances[from] >= amount,\"token`s balance is not enough !\");\n        _balances[from] -= amount;\n        _balances[to] +=amount;\n    }\n}",
  "sourcePath": "/Users/binny/solidityProjects/transfer/contracts/3.Transfer.sol",
  "compiler": {
    "name": "solc",
    "version": "0.5.1+commit.c8a2cb62.Emscripten.clang"
  },
  "schemaVersion": "3.0.20",
  "updatedAt": "2020-01-02T02:19:31.715Z",
  "networkType": "ethereum",
  "devdoc": {
    "methods": {}
  },
  "userdoc": {
    "methods": {}
  }
}