{
  "contractName": "Transfer",
  "abi": [
    {
      "constant": true,
      "inputs": [],
      "name": "creator",
      "outputs": [
        {
          "name": "",
          "type": "address"
        }
      ],
      "payable": false,
      "stateMutability": "view",
      "type": "function"
    },
    {
      "inputs": [],
      "payable": false,
      "stateMutability": "nonpayable",
      "type": "constructor"
    },
    {
      "payable": true,
      "stateMutability": "payable",
      "type": "fallback"
    },
    {
      "constant": false,
      "inputs": [
        {
          "name": "a",
          "type": "uint256"
        }
      ],
      "name": "setA",
      "outputs": [],
      "payable": false,
      "stateMutability": "nonpayable",
      "type": "function"
    },
    {
      "constant": false,
      "inputs": [],
      "name": "getA",
      "outputs": [
        {
          "name": "",
          "type": "uint256"
        }
      ],
      "payable": false,
      "stateMutability": "nonpayable",
      "type": "function"
    },
    {
      "constant": true,
      "inputs": [
        {
          "name": "account",
          "type": "address"
        }
      ],
      "name": "balanceOf",
      "outputs": [
        {
          "name": "",
          "type": "uint256"
        }
      ],
      "payable": false,
      "stateMutability": "view",
      "type": "function"
    },
    {
      "constant": false,
      "inputs": [
        {
          "name": "payees",
          "type": "address[]"
        },
        {
          "name": "amount",
          "type": "uint256"
        }
      ],
      "name": "batchTransfer",
      "outputs": [],
      "payable": false,
      "stateMutability": "nonpayable",
      "type": "function"
    }
  ],
  "bytecode": "0x608060405234801561001057600080fd5b5060008054600160a060020a0319163317808255600160a060020a0316815260026020526040902061271090556102948061004c6000396000f3fe608060405260043610610066577c0100000000000000000000000000000000000000000000000000000000600035046302d05d3f811461009257806370a08231146100d057806383f12fec14610122578063d46300fd146101d6578063ee919d50146101eb575b604051339060009060019082818181858883f1935050505015801561008f573d6000803e3d6000fd5b50005b34801561009e57600080fd5b506100a7610215565b6040805173ffffffffffffffffffffffffffffffffffffffff9092168252519081900360200190f35b3480156100dc57600080fd5b50610110600480360360208110156100f357600080fd5b503573ffffffffffffffffffffffffffffffffffffffff16610231565b60408051918252519081900360200190f35b34801561012e57600080fd5b506101d46004803603604081101561014557600080fd5b81019060208101813564010000000081111561016057600080fd5b82018360208201111561017257600080fd5b8035906020019184602083028401116401000000008311171561019457600080fd5b9190808060200260200160405190810160405280939291908181526020018383602002808284376000920191909152509295505091359250610259915050565b005b3480156101e257600080fd5b5061011061025d565b3480156101f757600080fd5b506101d46004803603602081101561020e57600080fd5b5035610263565b60005473ffffffffffffffffffffffffffffffffffffffff1681565b73ffffffffffffffffffffffffffffffffffffffff1660009081526002602052604090205490565b5050565b60015490565b60015556fea165627a7a72305820857a8fc26e201b2853ca6ce10a0d0542b024243123a4e4e5cd8627fd995dea3c0029",
  "source": "pragma solidity ^0.5.0;\n\ncontract Transfer {\n    address payable public creator;\n    uint256 _a;\n    mapping(address => uint256) _balances;\n\n    function setA(uint256 a) public {\n        _a = a;\n    }\n\n    function getA() public returns (uint256){\n        return _a;\n    }\n    constructor () public {\n        creator = msg.sender;\n        _balances[creator] = 10000;\n    }\n    function() payable external {\n        msg.sender.transfer(1);\n    }\n\n\n    function balanceOf(address account) public view returns (uint256) {\n        return _balances[account];\n    }\n\n    function batchTransfer(address[] memory payees, uint256 amount) public {\n\n    }\n\n}",
  "sourcePath": "/Users/binny/solidityProjects/transfer/contracts/2.Transfer.sol",
  "compiler": {
    "name": "solc",
    "version": "0.5.1+commit.c8a2cb62.Emscripten.clang"
  },
  "schemaVersion": "3.0.20",
  "updatedAt": "2020-01-02T02:19:31.285Z",
  "networkType": "ethereum",
  "devdoc": {
    "methods": {}
  },
  "userdoc": {
    "methods": {}
  }
}